{
  "_format": "hh-sol-artifact-1",
  "contractName": "DeBridgeGate",
  "sourceName": "contracts/transfers/DeBridgeGate.sol",
  "abi": [
    {
      "inputs": [],
      "name": "AdminBadRole",
      "type": "error"
    },
    {
      "inputs": [],
      "name": "AssetAlreadyExist",
      "type": "error"
    },
    {
      "inputs": [],
      "name": "DebridgeNotFound",
      "type": "error"
    },
    {
      "inputs": [],
      "name": "DefiControllerBadRole",
      "type": "error"
    },
    {
      "inputs": [],
      "name": "EthTransferFailed",
      "type": "error"
    },
    {
      "inputs": [],
      "name": "FeeContractUpdaterBadRole",
      "type": "error"
    },
    {
      "inputs": [],
      "name": "FeeProxyBadRole",
      "type": "error"
    },
    {
      "inputs": [],
      "name": "FlashFeeNotPaid",
      "type": "error"
    },
    {
      "inputs": [],
      "name": "GovMonitoringBadRole",
      "type": "error"
    },
    {
      "inputs": [],
      "name": "InvalidTokenToSend",
      "type": "error"
    },
    {
      "inputs": [],
      "name": "NotEnoughReserves",
      "type": "error"
    },
    {
      "inputs": [],
      "name": "NotSupportedFixedFee",
      "type": "error"
    },
    {
      "inputs": [],
      "name": "ProposedFeeTooHigh",
      "type": "error"
    },
    {
      "inputs": [],
      "name": "SignatureInvalidV",
      "type": "error"
    },
    {
      "inputs": [],
      "name": "SubmissionBlocked",
      "type": "error"
    },
    {
      "inputs": [],
      "name": "SubmissionUsed",
      "type": "error"
    },
    {
      "inputs": [],
      "name": "TransferAmountNotCoverFees",
      "type": "error"
    },
    {
      "inputs": [],
      "name": "TransferAmountTooHigh",
      "type": "error"
    },
    {
      "inputs": [],
      "name": "WrongArgument",
      "type": "error"
    },
    {
      "inputs": [],
      "name": "WrongArgumentLength",
      "type": "error"
    },
    {
      "inputs": [],
      "name": "WrongAutoArgument",
      "type": "error"
    },
    {
      "inputs": [],
      "name": "WrongChainFrom",
      "type": "error"
    },
    {
      "inputs": [],
      "name": "WrongChainTo",
      "type": "error"
    },
    {
      "inputs": [],
      "name": "ZeroAddress",
      "type": "error"
    },
    {
      "anonymous": false,
      "inputs": [
        {
          "indexed": false,
          "internalType": "bytes32",
          "name": "submissionId",
          "type": "bytes32"
        },
        {
          "indexed": true,
          "internalType": "bool",
          "name": "success",
          "type": "bool"
        },
        {
          "indexed": false,
          "internalType": "address",
          "name": "callProxy",
          "type": "address"
        }
      ],
      "name": "AutoRequestExecuted",
      "type": "event"
    },
    {
      "anonymous": false,
      "inputs": [
        {
          "indexed": false,
          "internalType": "bytes32",
          "name": "submissionId",
          "type": "bytes32"
        }
      ],
      "name": "Blocked",
      "type": "event"
    },
    {
      "anonymous": false,
      "inputs": [
        {
          "indexed": false,
          "internalType": "address",
          "name": "callProxy",
          "type": "address"
        }
      ],
      "name": "CallProxyUpdated",
      "type": "event"
    },
    {
      "anonymous": false,
      "inputs": [
        {
          "indexed": false,
          "internalType": "uint256",
          "name": "chainId",
          "type": "uint256"
        },
        {
          "indexed": false,
          "internalType": "bool",
          "name": "isSupported",
          "type": "bool"
        },
        {
          "indexed": false,
          "internalType": "bool",
          "name": "isChainFrom",
          "type": "bool"
        }
      ],
      "name": "ChainSupportUpdated",
      "type": "event"
    },
    {
      "anonymous": false,
      "inputs": [
        {
          "indexed": false,
          "internalType": "uint256",
          "name": "chainIds",
          "type": "uint256"
        },
        {
          "components": [
            {
              "internalType": "uint256",
              "name": "fixedNativeFee",
              "type": "uint256"
            },
            {
              "internalType": "bool",
              "name": "isSupported",
              "type": "bool"
            },
            {
              "internalType": "uint16",
              "name": "transferFeeBps",
              "type": "uint16"
            }
          ],
          "indexed": false,
          "internalType": "struct IDeBridgeGate.ChainSupportInfo",
          "name": "chainSupportInfo",
          "type": "tuple"
        },
        {
          "indexed": false,
          "internalType": "bool",
          "name": "isChainFrom",
          "type": "bool"
        }
      ],
      "name": "ChainsSupportUpdated",
      "type": "event"
    },
    {
      "anonymous": false,
      "inputs": [
        {
          "indexed": false,
          "internalType": "bytes32",
          "name": "submissionId",
          "type": "bytes32"
        },
        {
          "indexed": true,
          "internalType": "bytes32",
          "name": "debridgeId",
          "type": "bytes32"
        },
        {
          "indexed": false,
          "internalType": "uint256",
          "name": "amount",
          "type": "uint256"
        },
        {
          "indexed": true,
          "internalType": "address",
          "name": "receiver",
          "type": "address"
        },
        {
          "indexed": false,
          "internalType": "uint256",
          "name": "nonce",
          "type": "uint256"
        },
        {
          "indexed": true,
          "internalType": "uint256",
          "name": "chainIdFrom",
          "type": "uint256"
        },
        {
          "indexed": false,
          "internalType": "bytes",
          "name": "autoParams",
          "type": "bytes"
        },
        {
          "indexed": false,
          "internalType": "bool",
          "name": "isNativeToken",
          "type": "bool"
        }
      ],
      "name": "Claimed",
      "type": "event"
    },
    {
      "anonymous": false,
      "inputs": [
        {
          "indexed": false,
          "internalType": "uint256",
          "name": "globalFixedNativeFee",
          "type": "uint256"
        }
      ],
      "name": "FixedNativeFeeAutoUpdated",
      "type": "event"
    },
    {
      "anonymous": false,
      "inputs": [
        {
          "indexed": false,
          "internalType": "uint256",
          "name": "globalFixedNativeFee",
          "type": "uint256"
        },
        {
          "indexed": false,
          "internalType": "uint256",
          "name": "globalTransferFeeBps",
          "type": "uint256"
        }
      ],
      "name": "FixedNativeFeeUpdated",
      "type": "event"
    },
    {
      "anonymous": false,
      "inputs": [
        {
          "indexed": false,
          "internalType": "address",
          "name": "sender",
          "type": "address"
        },
        {
          "indexed": true,
          "internalType": "address",
          "name": "tokenAddress",
          "type": "address"
        },
        {
          "indexed": true,
          "internalType": "address",
          "name": "receiver",
          "type": "address"
        },
        {
          "indexed": false,
          "internalType": "uint256",
          "name": "amount",
          "type": "uint256"
        },
        {
          "indexed": false,
          "internalType": "uint256",
          "name": "paid",
          "type": "uint256"
        }
      ],
      "name": "Flash",
      "type": "event"
    },
    {
      "anonymous": false,
      "inputs": [
        {
          "indexed": false,
          "internalType": "bytes32",
          "name": "submissionId",
          "type": "bytes32"
        },
        {
          "indexed": false,
          "internalType": "uint256",
          "name": "lockedOrMintedAmount",
          "type": "uint256"
        },
        {
          "indexed": false,
          "internalType": "uint256",
          "name": "totalSupply",
          "type": "uint256"
        }
      ],
      "name": "MonitoringClaimEvent",
      "type": "event"
    },
    {
      "anonymous": false,
      "inputs": [
        {
          "indexed": false,
          "internalType": "bytes32",
          "name": "submissionId",
          "type": "bytes32"
        },
        {
          "indexed": false,
          "internalType": "uint256",
          "name": "nonce",
          "type": "uint256"
        },
        {
          "indexed": false,
          "internalType": "uint256",
          "name": "lockedOrMintedAmount",
          "type": "uint256"
        },
        {
          "indexed": false,
          "internalType": "uint256",
          "name": "totalSupply",
          "type": "uint256"
        }
      ],
      "name": "MonitoringSendEvent",
      "type": "event"
    },
    {
      "anonymous": false,
      "inputs": [
        {
          "indexed": false,
          "internalType": "bytes32",
          "name": "debridgeId",
          "type": "bytes32"
        },
        {
          "indexed": false,
          "internalType": "address",
          "name": "tokenAddress",
          "type": "address"
        },
        {
          "indexed": false,
          "internalType": "bytes",
          "name": "nativeAddress",
          "type": "bytes"
        },
        {
          "indexed": true,
          "internalType": "uint256",
          "name": "nativeChainId",
          "type": "uint256"
        },
        {
          "indexed": false,
          "internalType": "uint256",
          "name": "maxAmount",
          "type": "uint256"
        },
        {
          "indexed": false,
          "internalType": "uint16",
          "name": "minReservesBps",
          "type": "uint16"
        }
      ],
      "name": "PairAdded",
      "type": "event"
    },
    {
      "anonymous": false,
      "inputs": [
        {
          "indexed": false,
          "internalType": "address",
          "name": "account",
          "type": "address"
        }
      ],
      "name": "Paused",
      "type": "event"
    },
    {
      "anonymous": false,
      "inputs": [
        {
          "indexed": true,
          "internalType": "bytes32",
          "name": "role",
          "type": "bytes32"
        },
        {
          "indexed": true,
          "internalType": "bytes32",
          "name": "previousAdminRole",
          "type": "bytes32"
        },
        {
          "indexed": true,
          "internalType": "bytes32",
          "name": "newAdminRole",
          "type": "bytes32"
        }
      ],
      "name": "RoleAdminChanged",
      "type": "event"
    },
    {
      "anonymous": false,
      "inputs": [
        {
          "indexed": true,
          "internalType": "bytes32",
          "name": "role",
          "type": "bytes32"
        },
        {
          "indexed": true,
          "internalType": "address",
          "name": "account",
          "type": "address"
        },
        {
          "indexed": true,
          "internalType": "address",
          "name": "sender",
          "type": "address"
        }
      ],
      "name": "RoleGranted",
      "type": "event"
    },
    {
      "anonymous": false,
      "inputs": [
        {
          "indexed": true,
          "internalType": "bytes32",
          "name": "role",
          "type": "bytes32"
        },
        {
          "indexed": true,
          "internalType": "address",
          "name": "account",
          "type": "address"
        },
        {
          "indexed": true,
          "internalType": "address",
          "name": "sender",
          "type": "address"
        }
      ],
      "name": "RoleRevoked",
      "type": "event"
    },
    {
      "anonymous": false,
      "inputs": [
        {
          "indexed": false,
          "internalType": "bytes32",
          "name": "submissionId",
          "type": "bytes32"
        },
        {
          "indexed": true,
          "internalType": "bytes32",
          "name": "debridgeId",
          "type": "bytes32"
        },
        {
          "indexed": false,
          "internalType": "uint256",
          "name": "amount",
          "type": "uint256"
        },
        {
          "indexed": false,
          "internalType": "bytes",
          "name": "receiver",
          "type": "bytes"
        },
        {
          "indexed": false,
          "internalType": "uint256",
          "name": "nonce",
          "type": "uint256"
        },
        {
          "indexed": true,
          "internalType": "uint256",
          "name": "chainIdTo",
          "type": "uint256"
        },
        {
          "indexed": false,
          "internalType": "uint32",
          "name": "referralCode",
          "type": "uint32"
        },
        {
          "components": [
            {
              "internalType": "uint256",
              "name": "receivedAmount",
              "type": "uint256"
            },
            {
              "internalType": "uint256",
              "name": "fixFee",
              "type": "uint256"
            },
            {
              "internalType": "uint256",
              "name": "transferFee",
              "type": "uint256"
            },
            {
              "internalType": "bool",
              "name": "useAssetFee",
              "type": "bool"
            },
            {
              "internalType": "bool",
              "name": "isNativeToken",
              "type": "bool"
            }
          ],
          "indexed": false,
          "internalType": "struct IDeBridgeGate.FeeParams",
          "name": "feeParams",
          "type": "tuple"
        },
        {
          "indexed": false,
          "internalType": "bytes",
          "name": "autoParams",
          "type": "bytes"
        },
        {
          "indexed": false,
          "internalType": "address",
          "name": "nativeSender",
          "type": "address"
        }
      ],
      "name": "Sent",
      "type": "event"
    },
    {
      "anonymous": false,
      "inputs": [
        {
          "indexed": false,
          "internalType": "bytes32",
          "name": "submissionId",
          "type": "bytes32"
        }
      ],
      "name": "Unblocked",
      "type": "event"
    },
    {
      "anonymous": false,
      "inputs": [
        {
          "indexed": false,
          "internalType": "address",
          "name": "account",
          "type": "address"
        }
      ],
      "name": "Unpaused",
      "type": "event"
    },
    {
      "anonymous": false,
      "inputs": [
        {
          "indexed": false,
          "internalType": "bytes32",
          "name": "debridgeId",
          "type": "bytes32"
        },
        {
          "indexed": false,
          "internalType": "uint256",
          "name": "fee",
          "type": "uint256"
        }
      ],
      "name": "WithdrawnFee",
      "type": "event"
    },
    {
      "inputs": [],
      "name": "BPS_DENOMINATOR",
      "outputs": [
        {
          "internalType": "uint256",
          "name": "",
          "type": "uint256"
        }
      ],
      "stateMutability": "view",
      "type": "function"
    },
    {
      "inputs": [],
      "name": "DEFAULT_ADMIN_ROLE",
      "outputs": [
        {
          "internalType": "bytes32",
          "name": "",
          "type": "bytes32"
        }
      ],
      "stateMutability": "view",
      "type": "function"
    },
    {
      "inputs": [],
      "name": "DEPLOY_PREFIX",
      "outputs": [
        {
          "internalType": "uint256",
          "name": "",
          "type": "uint256"
        }
      ],
      "stateMutability": "view",
      "type": "function"
    },
    {
      "inputs": [],
      "name": "GOVMONITORING_ROLE",
      "outputs": [
        {
          "internalType": "bytes32",
          "name": "",
          "type": "bytes32"
        }
      ],
      "stateMutability": "view",
      "type": "function"
    },
    {
      "inputs": [],
      "name": "SUBMISSION_PREFIX",
      "outputs": [
        {
          "internalType": "uint256",
          "name": "",
          "type": "uint256"
        }
      ],
      "stateMutability": "view",
      "type": "function"
    },
    {
      "inputs": [
        {
          "internalType": "uint256",
          "name": "_globalFixedNativeFee",
          "type": "uint256"
        }
      ],
      "name": "autoUpdateFixedNativeFee",
      "outputs": [],
      "stateMutability": "nonpayable",
      "type": "function"
    },
    {
      "inputs": [
        {
          "internalType": "bytes32[]",
          "name": "_submissionIds",
          "type": "bytes32[]"
        },
        {
          "internalType": "bool",
          "name": "isBlocked",
          "type": "bool"
        }
      ],
      "name": "blockSubmission",
      "outputs": [],
      "stateMutability": "nonpayable",
      "type": "function"
    },
    {
      "inputs": [],
      "name": "callProxy",
      "outputs": [
        {
          "internalType": "address",
          "name": "",
          "type": "address"
        }
      ],
      "stateMutability": "view",
      "type": "function"
    },
    {
      "inputs": [
        {
          "internalType": "bytes32",
          "name": "_debridgeId",
          "type": "bytes32"
        },
        {
          "internalType": "uint256",
          "name": "_amount",
          "type": "uint256"
        },
        {
          "internalType": "uint256",
          "name": "_chainIdFrom",
          "type": "uint256"
        },
        {
          "internalType": "address",
          "name": "_receiver",
          "type": "address"
        },
        {
          "internalType": "uint256",
          "name": "_nonce",
          "type": "uint256"
        },
        {
          "internalType": "bytes",
          "name": "_signatures",
          "type": "bytes"
        },
        {
          "internalType": "bytes",
          "name": "_autoParams",
          "type": "bytes"
        }
      ],
      "name": "claim",
      "outputs": [],
      "stateMutability": "nonpayable",
      "type": "function"
    },
    {
      "inputs": [],
      "name": "deBridgeTokenDeployer",
      "outputs": [
        {
          "internalType": "address",
          "name": "",
          "type": "address"
        }
      ],
      "stateMutability": "view",
      "type": "function"
    },
    {
      "inputs": [],
      "name": "defiController",
      "outputs": [
        {
          "internalType": "address",
          "name": "",
          "type": "address"
        }
      ],
      "stateMutability": "view",
      "type": "function"
    },
    {
      "inputs": [
        {
          "internalType": "bytes",
          "name": "_nativeTokenAddress",
          "type": "bytes"
        },
        {
          "internalType": "uint256",
          "name": "_nativeChainId",
          "type": "uint256"
        },
        {
          "internalType": "string",
          "name": "_name",
          "type": "string"
        },
        {
          "internalType": "string",
          "name": "_symbol",
          "type": "string"
        },
        {
          "internalType": "uint8",
          "name": "_decimals",
          "type": "uint8"
        },
        {
          "internalType": "bytes",
          "name": "_signatures",
          "type": "bytes"
        }
      ],
      "name": "deployNewAsset",
      "outputs": [],
      "stateMutability": "nonpayable",
      "type": "function"
    },
    {
      "inputs": [],
      "name": "excessConfirmations",
      "outputs": [
        {
          "internalType": "uint8",
          "name": "",
          "type": "uint8"
        }
      ],
      "stateMutability": "view",
      "type": "function"
    },
    {
      "inputs": [],
      "name": "feeContractUpdater",
      "outputs": [
        {
          "internalType": "address",
          "name": "",
          "type": "address"
        }
      ],
      "stateMutability": "view",
      "type": "function"
    },
    {
      "inputs": [
        {
          "internalType": "address",
          "name": "",
          "type": "address"
        }
      ],
      "name": "feeDiscount",
      "outputs": [
        {
          "internalType": "uint16",
          "name": "discountFixBps",
          "type": "uint16"
        },
        {
          "internalType": "uint16",
          "name": "discountTransferBps",
          "type": "uint16"
        }
      ],
      "stateMutability": "view",
      "type": "function"
    },
    {
      "inputs": [],
      "name": "feeProxy",
      "outputs": [
        {
          "internalType": "address",
          "name": "",
          "type": "address"
        }
      ],
      "stateMutability": "view",
      "type": "function"
    },
    {
      "inputs": [
        {
          "internalType": "address",
          "name": "_tokenAddress",
          "type": "address"
        },
        {
          "internalType": "address",
          "name": "_receiver",
          "type": "address"
        },
        {
          "internalType": "uint256",
          "name": "_amount",
          "type": "uint256"
        },
        {
          "internalType": "bytes",
          "name": "_data",
          "type": "bytes"
        }
      ],
      "name": "flash",
      "outputs": [],
      "stateMutability": "nonpayable",
      "type": "function"
    },
    {
      "inputs": [],
      "name": "flashFeeBps",
      "outputs": [
        {
          "internalType": "uint256",
          "name": "",
          "type": "uint256"
        }
      ],
      "stateMutability": "view",
      "type": "function"
    },
    {
      "inputs": [
        {
          "internalType": "bytes32",
          "name": "",
          "type": "bytes32"
        }
      ],
      "name": "getAmountThreshold",
      "outputs": [
        {
          "internalType": "uint256",
          "name": "",
          "type": "uint256"
        }
      ],
      "stateMutability": "view",
      "type": "function"
    },
    {
      "inputs": [
        {
          "internalType": "uint256",
          "name": "",
          "type": "uint256"
        }
      ],
      "name": "getChainFromConfig",
      "outputs": [
        {
          "internalType": "uint256",
          "name": "fixedNativeFee",
          "type": "uint256"
        },
        {
          "internalType": "bool",
          "name": "isSupported",
          "type": "bool"
        },
        {
          "internalType": "uint16",
          "name": "transferFeeBps",
          "type": "uint16"
        }
      ],
      "stateMutability": "view",
      "type": "function"
    },
    {
      "inputs": [],
      "name": "getChainId",
      "outputs": [
        {
          "internalType": "uint256",
          "name": "cid",
          "type": "uint256"
        }
      ],
      "stateMutability": "view",
      "type": "function"
    },
    {
      "inputs": [
        {
          "internalType": "uint256",
          "name": "",
          "type": "uint256"
        }
      ],
      "name": "getChainToConfig",
      "outputs": [
        {
          "internalType": "uint256",
          "name": "fixedNativeFee",
          "type": "uint256"
        },
        {
          "internalType": "bool",
          "name": "isSupported",
          "type": "bool"
        },
        {
          "internalType": "uint16",
          "name": "transferFeeBps",
          "type": "uint16"
        }
      ],
      "stateMutability": "view",
      "type": "function"
    },
    {
      "inputs": [
        {
          "internalType": "bytes32",
          "name": "",
          "type": "bytes32"
        }
      ],
      "name": "getDebridge",
      "outputs": [
        {
          "internalType": "uint256",
          "name": "chainId",
          "type": "uint256"
        },
        {
          "internalType": "uint256",
          "name": "maxAmount",
          "type": "uint256"
        },
        {
          "internalType": "uint256",
          "name": "balance",
          "type": "uint256"
        },
        {
          "internalType": "uint256",
          "name": "lockedInStrategies",
          "type": "uint256"
        },
        {
          "internalType": "address",
          "name": "tokenAddress",
          "type": "address"
        },
        {
          "internalType": "uint16",
          "name": "minReservesBps",
          "type": "uint16"
        },
        {
          "internalType": "bool",
          "name": "exist",
          "type": "bool"
        }
      ],
      "stateMutability": "view",
      "type": "function"
    },
    {
      "inputs": [
        {
          "internalType": "bytes32",
          "name": "_debridgeId",
          "type": "bytes32"
        },
        {
          "internalType": "uint256",
          "name": "_chainId",
          "type": "uint256"
        }
      ],
      "name": "getDebridgeChainAssetFixedFee",
      "outputs": [
        {
          "internalType": "uint256",
          "name": "",
          "type": "uint256"
        }
      ],
      "stateMutability": "view",
      "type": "function"
    },
    {
      "inputs": [
        {
          "internalType": "bytes32",
          "name": "",
          "type": "bytes32"
        }
      ],
      "name": "getDebridgeFeeInfo",
      "outputs": [
        {
          "internalType": "uint256",
          "name": "collectedFees",
          "type": "uint256"
        },
        {
          "internalType": "uint256",
          "name": "withdrawnFees",
          "type": "uint256"
        }
      ],
      "stateMutability": "view",
      "type": "function"
    },
    {
      "inputs": [
        {
          "internalType": "uint256",
          "name": "_chainId",
          "type": "uint256"
        },
        {
          "internalType": "address",
          "name": "_tokenAddress",
          "type": "address"
        }
      ],
      "name": "getDebridgeId",
      "outputs": [
        {
          "internalType": "bytes32",
          "name": "",
          "type": "bytes32"
        }
      ],
      "stateMutability": "pure",
      "type": "function"
    },
    {
      "inputs": [
        {
          "internalType": "address",
          "name": "_tokenAddress",
          "type": "address"
        }
      ],
      "name": "getDefiAvaliableReserves",
      "outputs": [
        {
          "internalType": "uint256",
          "name": "",
          "type": "uint256"
        }
      ],
      "stateMutability": "view",
      "type": "function"
    },
    {
      "inputs": [
        {
          "internalType": "bytes32",
          "name": "_debridgeId",
          "type": "bytes32"
        },
        {
          "internalType": "string",
          "name": "_name",
          "type": "string"
        },
        {
          "internalType": "string",
          "name": "_symbol",
          "type": "string"
        },
        {
          "internalType": "uint8",
          "name": "_decimals",
          "type": "uint8"
        }
      ],
      "name": "getDeployId",
      "outputs": [
        {
          "internalType": "bytes32",
          "name": "",
          "type": "bytes32"
        }
      ],
      "stateMutability": "pure",
      "type": "function"
    },
    {
      "inputs": [
        {
          "internalType": "address",
          "name": "",
          "type": "address"
        }
      ],
      "name": "getNativeInfo",
      "outputs": [
        {
          "internalType": "uint256",
          "name": "nativeChainId",
          "type": "uint256"
        },
        {
          "internalType": "bytes",
          "name": "nativeAddress",
          "type": "bytes"
        }
      ],
      "stateMutability": "view",
      "type": "function"
    },
    {
      "inputs": [
        {
          "internalType": "bytes32",
          "name": "role",
          "type": "bytes32"
        }
      ],
      "name": "getRoleAdmin",
      "outputs": [
        {
          "internalType": "bytes32",
          "name": "",
          "type": "bytes32"
        }
      ],
      "stateMutability": "view",
      "type": "function"
    },
    {
      "inputs": [
        {
          "internalType": "bytes32",
          "name": "_debridgeId",
          "type": "bytes32"
        },
        {
          "internalType": "uint256",
          "name": "_chainIdFrom",
          "type": "uint256"
        },
        {
          "internalType": "uint256",
          "name": "_amount",
          "type": "uint256"
        },
        {
          "internalType": "address",
          "name": "_receiver",
          "type": "address"
        },
        {
          "internalType": "uint256",
          "name": "_nonce",
          "type": "uint256"
        },
        {
          "components": [
            {
              "internalType": "uint256",
              "name": "executionFee",
              "type": "uint256"
            },
            {
              "internalType": "uint256",
              "name": "flags",
              "type": "uint256"
            },
            {
              "internalType": "address",
              "name": "fallbackAddress",
              "type": "address"
            },
            {
              "internalType": "bytes",
              "name": "data",
              "type": "bytes"
            },
            {
              "internalType": "bytes",
              "name": "nativeSender",
              "type": "bytes"
            }
          ],
          "internalType": "struct IDeBridgeGate.SubmissionAutoParamsFrom",
          "name": "_autoParams",
          "type": "tuple"
        },
        {
          "internalType": "bool",
          "name": "_hasAutoParams",
          "type": "bool"
        },
        {
          "internalType": "address",
          "name": "_sender",
          "type": "address"
        }
      ],
      "name": "getSubmissionIdFrom",
      "outputs": [
        {
          "internalType": "bytes32",
          "name": "",
          "type": "bytes32"
        }
      ],
      "stateMutability": "view",
      "type": "function"
    },
    {
      "inputs": [
        {
          "internalType": "uint256",
          "name": "_chainId",
          "type": "uint256"
        },
        {
          "internalType": "bytes",
          "name": "_tokenAddress",
          "type": "bytes"
        }
      ],
      "name": "getbDebridgeId",
      "outputs": [
        {
          "internalType": "bytes32",
          "name": "",
          "type": "bytes32"
        }
      ],
      "stateMutability": "pure",
      "type": "function"
    },
    {
      "inputs": [],
      "name": "globalFixedNativeFee",
      "outputs": [
        {
          "internalType": "uint256",
          "name": "",
          "type": "uint256"
        }
      ],
      "stateMutability": "view",
      "type": "function"
    },
    {
      "inputs": [],
      "name": "globalTransferFeeBps",
      "outputs": [
        {
          "internalType": "uint16",
          "name": "",
          "type": "uint16"
        }
      ],
      "stateMutability": "view",
      "type": "function"
    },
    {
      "inputs": [
        {
          "internalType": "bytes32",
          "name": "role",
          "type": "bytes32"
        },
        {
          "internalType": "address",
          "name": "account",
          "type": "address"
        }
      ],
      "name": "grantRole",
      "outputs": [],
      "stateMutability": "nonpayable",
      "type": "function"
    },
    {
      "inputs": [
        {
          "internalType": "bytes32",
          "name": "role",
          "type": "bytes32"
        },
        {
          "internalType": "address",
          "name": "account",
          "type": "address"
        }
      ],
      "name": "hasRole",
      "outputs": [
        {
          "internalType": "bool",
          "name": "",
          "type": "bool"
        }
      ],
      "stateMutability": "view",
      "type": "function"
    },
    {
      "inputs": [
        {
          "internalType": "uint8",
          "name": "_excessConfirmations",
          "type": "uint8"
        },
        {
          "internalType": "contract IWETH",
          "name": "_weth",
          "type": "address"
        }
      ],
      "name": "initialize",
      "outputs": [],
      "stateMutability": "nonpayable",
      "type": "function"
    },
    {
      "inputs": [
        {
          "internalType": "bytes32",
          "name": "",
          "type": "bytes32"
        }
      ],
      "name": "isBlockedSubmission",
      "outputs": [
        {
          "internalType": "bool",
          "name": "",
          "type": "bool"
        }
      ],
      "stateMutability": "view",
      "type": "function"
    },
    {
      "inputs": [
        {
          "internalType": "bytes32",
          "name": "",
          "type": "bytes32"
        }
      ],
      "name": "isSubmissionUsed",
      "outputs": [
        {
          "internalType": "bool",
          "name": "",
          "type": "bool"
        }
      ],
      "stateMutability": "view",
      "type": "function"
    },
    {
      "inputs": [],
      "name": "lockedClaim",
      "outputs": [
        {
          "internalType": "uint256",
          "name": "",
          "type": "uint256"
        }
      ],
      "stateMutability": "view",
      "type": "function"
    },
    {
      "inputs": [],
      "name": "nonce",
      "outputs": [
        {
          "internalType": "uint256",
          "name": "",
          "type": "uint256"
        }
      ],
      "stateMutability": "view",
      "type": "function"
    },
    {
      "inputs": [],
      "name": "pause",
      "outputs": [],
      "stateMutability": "nonpayable",
      "type": "function"
    },
    {
      "inputs": [],
      "name": "paused",
      "outputs": [
        {
          "internalType": "bool",
          "name": "",
          "type": "bool"
        }
      ],
      "stateMutability": "view",
      "type": "function"
    },
    {
      "inputs": [
        {
          "internalType": "bytes32",
          "name": "role",
          "type": "bytes32"
        },
        {
          "internalType": "address",
          "name": "account",
          "type": "address"
        }
      ],
      "name": "renounceRole",
      "outputs": [],
      "stateMutability": "nonpayable",
      "type": "function"
    },
    {
      "inputs": [
        {
          "internalType": "address",
          "name": "_tokenAddress",
          "type": "address"
        },
        {
          "internalType": "uint256",
          "name": "_amount",
          "type": "uint256"
        }
      ],
      "name": "requestReserves",
      "outputs": [],
      "stateMutability": "nonpayable",
      "type": "function"
    },
    {
      "inputs": [
        {
          "internalType": "address",
          "name": "_tokenAddress",
          "type": "address"
        },
        {
          "internalType": "uint256",
          "name": "_amount",
          "type": "uint256"
        }
      ],
      "name": "returnReserves",
      "outputs": [],
      "stateMutability": "nonpayable",
      "type": "function"
    },
    {
      "inputs": [
        {
          "internalType": "bytes32",
          "name": "role",
          "type": "bytes32"
        },
        {
          "internalType": "address",
          "name": "account",
          "type": "address"
        }
      ],
      "name": "revokeRole",
      "outputs": [],
      "stateMutability": "nonpayable",
      "type": "function"
    },
    {
      "inputs": [
        {
          "internalType": "address",
          "name": "_tokenAddress",
          "type": "address"
        },
        {
          "internalType": "uint256",
          "name": "_amount",
          "type": "uint256"
        },
        {
          "internalType": "uint256",
          "name": "_chainIdTo",
          "type": "uint256"
        },
        {
          "internalType": "bytes",
          "name": "_receiver",
          "type": "bytes"
        },
        {
          "internalType": "bytes",
          "name": "_permit",
          "type": "bytes"
        },
        {
          "internalType": "bool",
          "name": "_useAssetFee",
          "type": "bool"
        },
        {
          "internalType": "uint32",
          "name": "_referralCode",
          "type": "uint32"
        },
        {
          "internalType": "bytes",
          "name": "_autoParams",
          "type": "bytes"
        }
      ],
      "name": "send",
      "outputs": [],
      "stateMutability": "payable",
      "type": "function"
    },
    {
      "inputs": [
        {
          "internalType": "address",
          "name": "_callProxy",
          "type": "address"
        }
      ],
      "name": "setCallProxy",
      "outputs": [],
      "stateMutability": "nonpayable",
      "type": "function"
    },
    {
      "inputs": [
        {
          "internalType": "uint256",
          "name": "_chainId",
          "type": "uint256"
        },
        {
          "internalType": "bool",
          "name": "_isSupported",
          "type": "bool"
        },
        {
          "internalType": "bool",
          "name": "_isChainFrom",
          "type": "bool"
        }
      ],
      "name": "setChainSupport",
      "outputs": [],
      "stateMutability": "nonpayable",
      "type": "function"
    },
    {
      "inputs": [
        {
          "internalType": "address",
          "name": "_deBridgeTokenDeployer",
          "type": "address"
        }
      ],
      "name": "setDeBridgeTokenDeployer",
      "outputs": [],
      "stateMutability": "nonpayable",
      "type": "function"
    },
    {
      "inputs": [
        {
          "internalType": "address",
          "name": "_defiController",
          "type": "address"
        }
      ],
      "name": "setDefiController",
      "outputs": [],
      "stateMutability": "nonpayable",
      "type": "function"
    },
    {
      "inputs": [
        {
          "internalType": "address",
          "name": "_value",
          "type": "address"
        }
      ],
      "name": "setFeeContractUpdater",
      "outputs": [],
      "stateMutability": "nonpayable",
      "type": "function"
    },
    {
      "inputs": [
        {
          "internalType": "address",
          "name": "_feeProxy",
          "type": "address"
        }
      ],
      "name": "setFeeProxy",
      "outputs": [],
      "stateMutability": "nonpayable",
      "type": "function"
    },
    {
      "inputs": [
        {
          "internalType": "address",
          "name": "_verifier",
          "type": "address"
        }
      ],
      "name": "setSignatureVerifier",
      "outputs": [],
      "stateMutability": "nonpayable",
      "type": "function"
    },
    {
      "inputs": [
        {
          "internalType": "contract IWethGate",
          "name": "_wethGate",
          "type": "address"
        }
      ],
      "name": "setWethGate",
      "outputs": [],
      "stateMutability": "nonpayable",
      "type": "function"
    },
    {
      "inputs": [],
      "name": "signatureVerifier",
      "outputs": [
        {
          "internalType": "address",
          "name": "",
          "type": "address"
        }
      ],
      "stateMutability": "view",
      "type": "function"
    },
    {
      "inputs": [
        {
          "internalType": "bytes4",
          "name": "interfaceId",
          "type": "bytes4"
        }
      ],
      "name": "supportsInterface",
      "outputs": [
        {
          "internalType": "bool",
          "name": "",
          "type": "bool"
        }
      ],
      "stateMutability": "view",
      "type": "function"
    },
    {
      "inputs": [],
      "name": "unpause",
      "outputs": [],
      "stateMutability": "nonpayable",
      "type": "function"
    },
    {
      "inputs": [
        {
          "internalType": "bytes32",
          "name": "_debridgeId",
          "type": "bytes32"
        },
        {
          "internalType": "uint256",
          "name": "_maxAmount",
          "type": "uint256"
        },
        {
          "internalType": "uint16",
          "name": "_minReservesBps",
          "type": "uint16"
        },
        {
          "internalType": "uint256",
          "name": "_amountThreshold",
          "type": "uint256"
        }
      ],
      "name": "updateAsset",
      "outputs": [],
      "stateMutability": "nonpayable",
      "type": "function"
    },
    {
      "inputs": [
        {
          "internalType": "bytes32",
          "name": "_debridgeId",
          "type": "bytes32"
        },
        {
          "internalType": "uint256[]",
          "name": "_supportedChainIds",
          "type": "uint256[]"
        },
        {
          "internalType": "uint256[]",
          "name": "_assetFeesInfo",
          "type": "uint256[]"
        }
      ],
      "name": "updateAssetFixedFees",
      "outputs": [],
      "stateMutability": "nonpayable",
      "type": "function"
    },
    {
      "inputs": [
        {
          "internalType": "uint256[]",
          "name": "_chainIds",
          "type": "uint256[]"
        },
        {
          "components": [
            {
              "internalType": "uint256",
              "name": "fixedNativeFee",
              "type": "uint256"
            },
            {
              "internalType": "bool",
              "name": "isSupported",
              "type": "bool"
            },
            {
              "internalType": "uint16",
              "name": "transferFeeBps",
              "type": "uint16"
            }
          ],
          "internalType": "struct IDeBridgeGate.ChainSupportInfo[]",
          "name": "_chainSupportInfo",
          "type": "tuple[]"
        },
        {
          "internalType": "bool",
          "name": "_isChainFrom",
          "type": "bool"
        }
      ],
      "name": "updateChainSupport",
      "outputs": [],
      "stateMutability": "nonpayable",
      "type": "function"
    },
    {
      "inputs": [
        {
          "internalType": "uint8",
          "name": "_excessConfirmations",
          "type": "uint8"
        }
      ],
      "name": "updateExcessConfirmations",
      "outputs": [],
      "stateMutability": "nonpayable",
      "type": "function"
    },
    {
      "inputs": [
        {
          "internalType": "address",
          "name": "_address",
          "type": "address"
        },
        {
          "internalType": "uint16",
          "name": "_discountFixBps",
          "type": "uint16"
        },
        {
          "internalType": "uint16",
          "name": "_discountTransferBps",
          "type": "uint16"
        }
      ],
      "name": "updateFeeDiscount",
      "outputs": [],
      "stateMutability": "nonpayable",
      "type": "function"
    },
    {
      "inputs": [
        {
          "internalType": "uint256",
          "name": "_flashFeeBps",
          "type": "uint256"
        }
      ],
      "name": "updateFlashFee",
      "outputs": [],
      "stateMutability": "nonpayable",
      "type": "function"
    },
    {
      "inputs": [
        {
          "internalType": "uint256",
          "name": "_globalFixedNativeFee",
          "type": "uint256"
        },
        {
          "internalType": "uint16",
          "name": "_globalTransferFeeBps",
          "type": "uint16"
        }
      ],
      "name": "updateGlobalFee",
      "outputs": [],
      "stateMutability": "nonpayable",
      "type": "function"
    },
    {
      "inputs": [],
      "name": "version",
      "outputs": [
        {
          "internalType": "uint256",
          "name": "",
          "type": "uint256"
        }
      ],
      "stateMutability": "pure",
      "type": "function"
    },
    {
      "inputs": [],
      "name": "weth",
      "outputs": [
        {
          "internalType": "contract IWETH",
          "name": "",
          "type": "address"
        }
      ],
      "stateMutability": "view",
      "type": "function"
    },
    {
      "inputs": [],
      "name": "wethGate",
      "outputs": [
        {
          "internalType": "contract IWethGate",
          "name": "",
          "type": "address"
        }
      ],
      "stateMutability": "view",
      "type": "function"
    },
    {
      "inputs": [
        {
          "internalType": "bytes32",
          "name": "_debridgeId",
          "type": "bytes32"
        }
      ],
      "name": "withdrawFee",
      "outputs": [],
      "stateMutability": "nonpayable",
      "type": "function"
    },
    {
      "stateMutability": "payable",
      "type": "receive"
    }
  ],
  "bytecode": "0x608060405234801561001057600080fd5b50615bfe80620000216000396000f3fe6080604052600436106104095760003560e01c806391d1485411610213578063c1efe77d11610123578063da615052116100ab578063e1a452181161007a578063e1a4521814610de8578063e836a7a914610dfe578063ee81fb9714610e2c578063f449063314610e43578063fde919f614610e6357600080fd5b8063da61505214610d46578063dc1995e914610d7a578063e08a660514610da8578063e0d3f02914610dc857600080fd5b8063cb33764a116100f2578063cb33764a14610c89578063d19c3dd814610cc6578063d547741f14610ce6578063d6b531aa14610d06578063d7457c0314610d2657600080fd5b8063c1efe77d14610be6578063c280c90514610c29578063c41449eb14610c49578063c432e3ff14610c6957600080fd5b8063affed0e0116101a6578063ba9f777611610175578063ba9f777614610b52578063bd2608fa14610b73578063bdbc91ab14610b93578063be29747614610bb3578063be7f218414610bc657600080fd5b8063affed0e014610a92578063b242e7cf14610aa8578063b3b25f9514610aff578063b9b5565214610b1f57600080fd5b80639682b909116101e25780639682b909146109f2578063970a117c14610a125780639a8c3a0f14610a33578063a217fddf14610a7d57600080fd5b806391d148541461096c578063932fb34b1461098c578063960396ae146109bd57806396341ea7146109d257600080fd5b80634665a2f41161031957806366dfd489116102a15780637f4de21c116102705780637f4de21c146108d05780638456cb59146108f7578063889d71a21461090c578063895f0c6a1461092c5780638ffcc54f1461094c57600080fd5b806366dfd489146108185780636b063d651461082e578063760112ff1461084e5780637796656c1461086e57600080fd5b8063551156d6116102e8578063551156d6146106ce57806357cf07ca146106ee5780635c837198146107a05780635c975abb146107cf57806365ac9f78146107e757600080fd5b80634665a2f4146106645780634a77d3b6146106845780635187599d1461069957806354fd4d50146106b957600080fd5b80632da688ac1161039c57806335087f0a1161036b57806335087f0a146105d657806336568abe146105ed5780633f4ba83a1461060d5780633fc8cef31461062257806346144c8f1461064357600080fd5b80632da688ac1461054a5780632f2ff15d1461058357806331bf10c1146105a35780633408e470146105c357600080fd5b8063248a9ca3116103d8578063248a9ca3146104ac57806325be0be1146104ea57806326c09e941461050a5780632b0d0a8b1461052a57600080fd5b806301ffc9a714610415578063106f432f1461044a57806311b6e6b41461046c57806315a4587a1461048c57600080fd5b3661041057005b600080fd5b34801561042157600080fd5b50610435610430366004614ff7565b610e83565b60405190151581526020015b60405180910390f35b34801561045657600080fd5b5061046a61046536600461498e565b610eba565b005b34801561047857600080fd5b5061046a610487366004614d41565b610f05565b34801561049857600080fd5b5061046a6104a7366004614c23565b610f55565b3480156104b857600080fd5b506104dc6104c7366004614d41565b60009081526065602052604090206001015490565b604051908152602001610441565b3480156104f657600080fd5b5061046a61050536600461498e565b611167565b34801561051657600080fd5b5061046a610525366004614d41565b6111b2565b34801561053657600080fd5b5061046a61054536600461498e565b61130b565b34801561055657600080fd5b5061010a5461056b906001600160a01b031681565b6040516001600160a01b039091168152602001610441565b34801561058f57600080fd5b5061046a61059e366004614d5a565b611389565b3480156105af57600080fd5b5061046a6105be3660046151d7565b6113b4565b3480156105cf57600080fd5b50466104dc565b3480156105e257600080fd5b506104dc61010d5481565b3480156105f957600080fd5b5061046a610608366004614d5a565b61146b565b34801561061957600080fd5b5061046a6114e9565b34801561062e57600080fd5b5061010b5461056b906001600160a01b031681565b34801561064f57600080fd5b506101085461056b906001600160a01b031681565b34801561067057600080fd5b5061046a61067f36600461528b565b61151b565b34801561069057600080fd5b506104dc600281565b3480156106a557600080fd5b5061046a6106b43660046152c5565b611584565b3480156106c557600080fd5b506101906104dc565b3480156106da57600080fd5b5061046a6106e9366004614e97565b611638565b3480156106fa57600080fd5b5061075c610709366004614d41565b60ff602081905260009182526040909120805460018201546002830154600384015460049094015492949193909290916001600160a01b0382169161ffff600160a01b82041691600160b01b9091041687565b6040805197885260208801969096529486019390935260608501919091526001600160a01b0316608084015261ffff1660a0830152151560c082015260e001610441565b3480156107ac57600080fd5b5061010e546107bc9061ffff1681565b60405161ffff9091168152602001610441565b3480156107db57600080fd5b5060975460ff16610435565b3480156107f357600080fd5b50610435610802366004614d41565b6101016020526000908152604090205460ff1681565b34801561082457600080fd5b506104dc60fd5481565b34801561083a57600080fd5b5061046a610849366004614a78565b6116cf565b34801561085a57600080fd5b506104dc610869366004614f5a565b6117b4565b34801561087a57600080fd5b506108b1610889366004614d41565b610104602052600090815260409020805460019091015460ff811690610100900461ffff1683565b60408051938452911515602084015261ffff1690820152606001610441565b3480156108dc57600080fd5b5061010e5461056b906201000090046001600160a01b031681565b34801561090357600080fd5b5061046a61192f565b34801561091857600080fd5b5061046a61092736600461498e565b61197e565b34801561093857600080fd5b5061046a610947366004614d8a565b6119c8565b34801561095857600080fd5b506104dc61096736600461498e565b611a92565b34801561097857600080fd5b50610435610987366004614d5a565b611af4565b34801561099857600080fd5b506104356109a7366004614d41565b6101026020526000908152604090205460ff1681565b3480156109c957600080fd5b506104dc600181565b3480156109de57600080fd5b5061046a6109ed366004614b7a565b611b1f565b3480156109fe57600080fd5b506104dc610a0d366004614d5a565b611c5a565b348015610a1e57600080fd5b5061010c5461056b906001600160a01b031681565b348015610a3f57600080fd5b50610a68610a4e366004614d41565b610100602052600090815260409020805460019091015482565b60408051928352602083019190915201610441565b348015610a8957600080fd5b506104dc600081565b348015610a9e57600080fd5b506104dc60fe5481565b348015610ab457600080fd5b50610ae4610ac336600461498e565b6101066020526000908152604090205461ffff808216916201000090041682565b6040805161ffff938416815292909116602083015201610441565b348015610b0b57600080fd5b5061046a610b1a366004614a33565b611ca3565b348015610b2b57600080fd5b5060fc54610b4090600160a01b900460ff1681565b60405160ff9091168152602001610441565b348015610b5e57600080fd5b506101095461056b906001600160a01b031681565b348015610b7f57600080fd5b5061046a610b8e366004615021565b611d51565b348015610b9f57600080fd5b5061046a610bae3660046149c8565b611f10565b61046a610bc1366004614aa4565b6121e7565b348015610bd257600080fd5b5061046a610be1366004614a78565b612351565b348015610bf257600080fd5b506108b1610c01366004614d41565b610105602052600090815260409020805460019091015460ff811690610100900461ffff1683565b348015610c3557600080fd5b5061046a610c44366004614ed4565b612502565b348015610c5557600080fd5b5061046a610c6436600461525f565b612684565b348015610c7557600080fd5b5061046a610c8436600461498e565b612705565b348015610c9557600080fd5b506104dc610ca4366004614e75565b6000918252610100602090815260408084209284526002909201905290205490565b348015610cd257600080fd5b506104dc610ce1366004614df6565b612758565b348015610cf257600080fd5b5061046a610d01366004614d5a565b612794565b348015610d1257600080fd5b5061046a610d21366004614d41565b6127ba565b348015610d3257600080fd5b5060fb5461056b906001600160a01b031681565b348015610d5257600080fd5b506104dc7f2b36fa99e118fa8485d488becf749a974743fbeb6a7aa57e663893bf5d69a3c181565b348015610d8657600080fd5b50610d9a610d9536600461498e565b61281c565b604051610441929190615885565b348015610db457600080fd5b5061046a610dc336600461498e565b6128c2565b348015610dd457600080fd5b5061046a610de336600461498e565b61290c565b348015610df457600080fd5b506104dc61271081565b348015610e0a57600080fd5b506104dc610e19366004614d41565b6101036020526000908152604090205481565b348015610e3857600080fd5b506104dc61010f5481565b348015610e4f57600080fd5b506104dc610e5e366004615219565b612957565b348015610e6f57600080fd5b5060fc5461056b906001600160a01b031681565b60006001600160e01b03198216637965db0b60e01b1480610eb457506301ffc9a760e01b6001600160e01b03198316145b92915050565b610ec5600033611af4565b610ee257604051636f4720fd60e11b815260040160405180910390fd5b61010880546001600160a01b0319166001600160a01b0392909216919091179055565b610f10600033611af4565b610f2d57604051636f4720fd60e11b815260040160405180910390fd5b612710811115610f5057604051634668624160e01b815260040160405180910390fd5b60fd55565b610f60600033611af4565b610f7d57604051636f4720fd60e11b815260040160405180910390fd5b8151835114610f9f57604051634668624160e01b815260040160405180910390fd5b60005b835181101561116157811561103b57828181518110610fc357610fc3615b6a565b60200260200101516101056000868481518110610fe257610fe2615b6a565b6020908102919091018101518252818101929092526040908101600020835181559183015160019092018054939091015161ffff166101000262ffff00199215159290921662ffffff19909316929092171790556110c1565b82818151811061104d5761104d615b6a565b6020026020010151610104600086848151811061106c5761106c615b6a565b6020908102919091018101518252818101929092526040908101600020835181559183015160019092018054939091015161ffff166101000262ffff00199215159290921662ffffff19909316929092171790555b7f753df979edb610900dbec05f67411d26a90a78013a0e3a028f2fd9d3c6fd214f8482815181106110f4576110f4615b6a565b602002602001015184838151811061110e5761110e615b6a565b6020908102919091018101516040805193845281518484015291810151151583830152015161ffff166060820152831515608082015260a00160405180910390a18061115981615b39565b915050610fa2565b50505050565b611172600033611af4565b61118f57604051636f4720fd60e11b815260040160405180910390fd5b61010980546001600160a01b0319166001600160a01b0392909216919091179055565b600260c95414156111de5760405162461bcd60e51b81526004016111d5906157f8565b60405180910390fd5b600260c955610109546001600160a01b0316331461120f5760405163dd518cdb60e01b815260040160405180910390fd5b600081815261010060205260408120600181015481549192916112329190615aa4565b9050806112525760405163c6c13aa760e01b815260040160405180910390fd5b80826001016000828254611266919061593b565b909155506112789050465b6000611c5a565b83141561129b5761010954611296906001600160a01b03168261296c565b6112c8565b61010954600084815260ff60205260409020600401546112c8916001600160a01b039182169116836129fa565b60408051848152602081018390527fb4006a5a0c03fd761a319df109910cdb56253d60a54ffc647c070b8bad0a8ae3910160405180910390a15050600160c95550565b611316600033611af4565b61133357604051636f4720fd60e11b815260040160405180910390fd5b61010a80546001600160a01b0319166001600160a01b0383169081179091556040519081527fa9543b36462a5e2c2259a14d72a8bd4e2342eaf9d7c828e9fb86921b3aa3eb5f906020015b60405180910390a150565b6000828152606560205260409020600101546113a58133612a5d565b6113af8383612ac1565b505050565b6113bf600033611af4565b6113dc57604051636f4720fd60e11b815260040160405180910390fd5b801561140557600083815261010560205260409020600101805460ff1916831515179055611424565b600083815261010460205260409020600101805460ff19168315151790555b6040805184815283151560208201528215158183015290517f522cc1aea4e8d667320894993cf2dc17feb624e400eb812c41a8efbcefc3d3409181900360600190a1505050565b6001600160a01b03811633146114db5760405162461bcd60e51b815260206004820152602f60248201527f416363657373436f6e74726f6c3a2063616e206f6e6c792072656e6f756e636560448201526e103937b632b9903337b91039b2b63360891b60648201526084016111d5565b6114e58282612b47565b5050565b6114f4600033611af4565b61151157604051636f4720fd60e11b815260040160405180910390fd5b611519612bae565b565b611526600033611af4565b61154357604051636f4720fd60e11b815260040160405180910390fd5b60ff811661156457604051634668624160e01b815260040160405180910390fd5b60fc805460ff909216600160a01b0260ff60a01b19909216919091179055565b600054610100900460ff168061159d575060005460ff16155b6115b95760405162461bcd60e51b81526004016111d5906157aa565b600054610100900460ff161580156115db576000805461ffff19166101011790555b60fc805460ff60a01b1916600160a01b60ff86160217905561010b80546001600160a01b0319166001600160a01b03841617905561161a600033612c41565b611622612c4b565b80156113af576000805461ff0019169055505050565b611643600033611af4565b61166057604051636f4720fd60e11b815260040160405180910390fd5b6127108261ffff16111561168757604051634668624160e01b815260040160405180910390fd5b600093845260ff6020908152604080862060018101959095556004909401805461ffff909416600160a01b0261ffff60a01b1990941693909317909255610103909152912055565b610108546001600160a01b031633146116fb57604051631d1dfb6d60e01b815260040160405180910390fd5b600260c954141561171e5760405162461bcd60e51b81526004016111d5906157f8565b600260c9556000611730465b84611c5a565b600081815260ff60208190526040909120600481015492935091600160b01b90041661176f57604051631433b3cd60e01b815260040160405180910390fd5b828160030160008282546117839190615aa4565b90915550506101085460048201546117a9916001600160a01b0391821691163086612cbf565b5050600160c9555050565b60408051600160208201528082018a905260608082018a905246608083015260a0820189905287901b6001600160601b03191660c082015260d48082018790528251808303909101815260f4909101909152600090831561191857602085015160009060031c6001908116148015611841575085604001516001600160a01b0316846001600160a01b0316145b801561185257508560600151516020145b905081866000015187602001518860400151604051602001611887919060609190911b6001600160601b031916815260140190565b60405160208183030381529060405280519060200120846118d45760608a015180516020918201206040516118c0920190815260200190565b6040516020818303038152906040526118da565b89606001515b60808b015180516020918201206040516118f997969594939201615364565b6040516020818303038152906040528051906020012092505050611923565b805160209091012090505b98975050505050505050565b6119597f2b36fa99e118fa8485d488becf749a974743fbeb6a7aa57e663893bf5d69a3c133611af4565b61197657604051636053780560e01b815260040160405180910390fd5b611519612cf7565b611989600033611af4565b6119a657604051636f4720fd60e11b815260040160405180910390fd5b60fb80546001600160a01b0319166001600160a01b0392909216919091179055565b6119d3600033611af4565b6119f057604051636f4720fd60e11b815260040160405180910390fd5b8051825114611a1257604051634668624160e01b815260040160405180910390fd5b600083815261010060205260408120905b8351811015611a8b57828181518110611a3e57611a3e615b6a565b6020026020010151826002016000868481518110611a5e57611a5e615b6a565b60200260200101518152602001908152602001600020819055508080611a8390615b39565b915050611a23565b5050505050565b60008060ff81611aa3465b86611c5a565b81526020810191909152604001600020600481015490915061271090611ad490600160a01b900461ffff1682615aa4565b8260020154611ae39190615a85565b611aed9190615978565b9392505050565b60009182526065602090815260408084206001600160a01b0393909316845291905290205460ff1690565b611b2a600033611af4565b611b4757604051636f4720fd60e11b815260040160405180910390fd5b60005b82518110156113af57816101026000858481518110611b6b57611b6b615b6a565b6020026020010151815260200190815260200160002060006101000a81548160ff0219169083151502179055508115611bf5577f7f2b4c099f4c970e6d3b8677f8c32755ce38018a03dad58ed015c68a7e9bc791838281518110611bd157611bd1615b6a565b6020026020010151604051611be891815260200190565b60405180910390a1611c48565b7f598eac83c515ef525efc37796beda3b069e752328e8325fb446f84e6cc7d2242838281518110611c2857611c28615b6a565b6020026020010151604051611c3f91815260200190565b60405180910390a15b80611c5281615b39565b915050611b4a565b60008282604051602001611c8592919091825260601b6001600160601b031916602082015260340190565b60405160208183030381529060405280519060200120905092915050565b611cae600033611af4565b611ccb57604051636f4720fd60e11b815260040160405180910390fd5b6001600160a01b0383161580611ce657506127108261ffff16115b80611cf657506127108161ffff16115b15611d1457604051634668624160e01b815260040160405180910390fd5b6001600160a01b03909216600090815261010660205260409020805461ffff938416620100000263ffffffff199091169390921692909217179055565b600260c9541415611d745760405162461bcd60e51b81526004016111d5906157f8565b600260c95560975460ff1615611d9c5760405162461bcd60e51b81526004016111d590615780565b6000611da88688612957565b600081815260ff6020819052604090912060040154919250600160b01b9091041615611de75760405163f0faeff560e01b815260040160405180910390fd5b6000611df582878787612758565b60fc54604051632597429960e21b81529192506001600160a01b0381169163965d0a6491611e359185918891600160a01b90910460ff1690600401615624565b600060405180830381600087803b158015611e4f57600080fd5b505af1158015611e63573d6000803e3d6000fd5b505060fb54604051630743550560e01b8152600093506001600160a01b039091169150630743550590611ea09086908b908b908b90600401615650565b602060405180830381600087803b158015611eba57600080fd5b505af1158015611ece573d6000803e3d6000fd5b505050506040513d601f19601f82011682018060405250810190611ef291906149ab565b9050611f0083828b8b612d4f565b5050600160c95550505050505050565b600260c9541415611f335760405162461bcd60e51b81526004016111d5906157f8565b600260c95560975460ff1615611f5b5760405162461bcd60e51b81526004016111d590615780565b6000611f6646611a9d565b600081815260ff6020819052604090912060040154919250600160b01b90910416611fa457604051631433b3cd60e01b815260040160405180910390fd5b600061271060fd5485611fb79190615a85565b611fc19190615978565b6040516370a0823160e01b81523060048201529091506000906001600160a01b038816906370a082319060240160206040518083038186803b15801561200657600080fd5b505afa15801561201a573d6000803e3d6000fd5b505050506040513d601f19601f8201168201806040525081019061203e91906151be565b90506120546001600160a01b03881687876129fa565b604051635b6e007960e11b8152339063b6dc00f2906120799085908890600401615885565b600060405180830381600087803b15801561209357600080fd5b505af11580156120a7573d6000803e3d6000fd5b50506040516370a0823160e01b8152306004820152600092506001600160a01b038a1691506370a082319060240160206040518083038186803b1580156120ed57600080fd5b505afa158015612101573d6000803e3d6000fd5b505050506040513d601f19601f8201168201806040525081019061212591906151be565b905080612132848461593b565b11156121515760405163b1b335fb60e01b815260040160405180910390fd5b600061215d8383615aa4565b6000868152610100602052604081208054929350839290919061218190849061593b565b909155505060408051338152602081018990529081018290526001600160a01b03808a1691908b16907f3a1e073dab8e368be1648fd9c55ea62610b7eb53f9154791282692a76b153ca19060600160405180910390a35050600160c95550505050505050565b600260c954141561220a5760405162461bcd60e51b81526004016111d5906157f8565b600260c95560975460ff16156122325760405162461bcd60e51b81526004016111d590615780565b6040805160a0810182526000808252602082018190529181018290526060810182905260808101829052600061226b888d8d8d8b612ec4565b604080516080810182526000808252602082015260609181018290528181019190915291955093509091508415612311576122a88587018761511a565b90506122b88d82600001516136b1565b8082528c10156122db5760405163fe768a2360e01b815260040160405180910390fd5b60008160600151511180156122f35750604081015151155b15612311576040516315c1f47560e31b815260040160405180910390fd5b805161231d9083615aa4565b91506123298d836136b1565b915061233d848c848d878c878c1515613786565b5050600160c9555050505050505050505050565b610108546001600160a01b0316331461237d57604051631d1dfb6d60e01b815260040160405180910390fd5b600260c95414156123a05760405162461bcd60e51b81526004016111d5906157f8565b600260c95560006123b04661172a565b600081815260ff60208190526040909120600481015492935091600160b01b9004166123ef57604051631433b3cd60e01b815260040160405180910390fd5b600481015460028201546000916127109161241591600160a01b900461ffff1690615a85565b61241f9190615978565b6040516370a0823160e01b81523060048201529091506001600160a01b038616906370a082319060240160206040518083038186803b15801561246157600080fd5b505afa158015612475573d6000803e3d6000fd5b505050506040513d601f19601f8201168201806040525081019061249991906151be565b6124a3858361593b565b11156124c25760405163c6c13aa760e01b815260040160405180910390fd5b838260030160008282546124d6919061593b565b9091555050610108546124f6906001600160a01b038781169116866129fa565b5050600160c955505050565b60975460ff16156125255760405162461bcd60e51b81526004016111d590615780565b6000878152610105602052604090206001015460ff1661255857604051633b5bbdf960e11b815260040160405180910390fd5b6125936040518060a00160405280600081526020016000815260200160006001600160a01b0316815260200160608152602001606081525090565b81156125a8576125a5828401846150e6565b90505b60006125bc8b8a8c8b8b87891515336117b4565b6000818152610101602052604090205490915060ff16156125f05760405163e4e5e97560e01b815260040160405180910390fd5b600081815261010160205260409020805460ff19166001179055612617818c8c8989613a3f565b6000612627828d8b8e8e88613b0f565b905089896001600160a01b03168d7ffee5cae6d86f128037e90fc8d24296e73ad402bd6f6f09098589d528c2e14ad2858f8d8b8b8960405161266e96959493929190615732565b60405180910390a4505050505050505050505050565b61268f600033611af4565b6126ac57604051636f4720fd60e11b815260040160405180910390fd5b61010d82905561010e805461ffff191661ffff83169081179091556040805184815260208101929092527f850cd955704b99a3588cb377341a321bc53b01073abba0af4616b0c70eb77943910160405180910390a15050565b612710600033611af4565b61272d57604051636f4720fd60e11b815260040160405180910390fd5b61010e80546001600160a01b03909216620100000262010000600160b01b0319909216919091179055565b6000600285858585604051602001612774959493929190615429565b604051602081830303815290604052805190602001209050949350505050565b6000828152606560205260409020600101546127b08133612a5d565b6113af8383612b47565b61010c546001600160a01b031633146127e6576040516341c83f5f60e11b815260040160405180910390fd5b61010d8190556040518181527f6af65247cf743b7cb486dac49457e290bf672f3d89f71ed05d3f56d7b69c014b9060200161137e565b610107602052600090815260409020805460018201805491929161283f90615afe565b80601f016020809104026020016040519081016040528092919081815260200182805461286b90615afe565b80156128b85780601f1061288d576101008083540402835291602001916128b8565b820191906000526020600020905b81548152906001019060200180831161289b57829003601f168201915b5050505050905082565b6128cd600033611af4565b6128ea57604051636f4720fd60e11b815260040160405180910390fd5b60fc80546001600160a01b0319166001600160a01b0392909216919091179055565b612917600033611af4565b61293457604051636f4720fd60e11b815260040160405180910390fd5b61010c80546001600160a01b0319166001600160a01b0392909216919091179055565b60008282604051602001611c859291906154d1565b604080516000808252602082019092526001600160a01b0384169083906040516129969190615348565b60006040518083038185875af1925050503d80600081146129d3576040519150601f19603f3d011682016040523d82523d6000602084013e6129d8565b606091505b50509050806113af57604051630db2c7f160e31b815260040160405180910390fd5b6040516001600160a01b0383166024820152604481018290526113af90849063a9059cbb60e01b906064015b60408051601f198184030181529190526020810180516001600160e01b03166001600160e01b031990931692909217909152613ead565b612a678282611af4565b6114e557612a7f816001600160a01b03166014613f7f565b612a8a836020613f7f565b604051602001612a9b9291906153b4565b60408051601f198184030181529082905262461bcd60e51b82526111d59160040161576d565b612acb8282611af4565b6114e55760008281526065602090815260408083206001600160a01b03851684529091529020805460ff19166001179055612b033390565b6001600160a01b0316816001600160a01b0316837f2f8788117e7eff1d82e926ec794901d17c78024a50270940304540a733656f0d60405160405180910390a45050565b612b518282611af4565b156114e55760008281526065602090815260408083206001600160a01b0385168085529252808320805460ff1916905551339285917ff6391f5c32d9c69d2a47ea670b442974b53935d1edc7fd64eb21e047a839171b9190a45050565b60975460ff16612bf75760405162461bcd60e51b815260206004820152601460248201527314185d5cd8589b194e881b9bdd081c185d5cd95960621b60448201526064016111d5565b6097805460ff191690557f5db9ee0a495bf2e6ff9c91a7834c1ba4fdd244a5e8aa4e537bd38aeae4b073aa335b6040516001600160a01b03909116815260200160405180910390a1565b6114e58282612ac1565b600054610100900460ff1680612c64575060005460ff16155b612c805760405162461bcd60e51b81526004016111d5906157aa565b600054610100900460ff16158015612ca2576000805461ffff19166101011790555b612caa61411a565b8015612cbc576000805461ff00191690555b50565b6040516001600160a01b03808516602483015283166044820152606481018290526111619085906323b872dd60e01b90608401612a26565b60975460ff1615612d1a5760405162461bcd60e51b81526004016111d590615780565b6097805460ff191660011790557f62e78cea01bee320cd4e420270b5ea74000d11b0c9f74754ebdbfc544b05a258612c243390565b600084815260ff6020819052604090912060048101549091600160b01b9091041615612d8e5760405163f0faeff560e01b815260040160405180910390fd5b6001600160a01b038416612db55760405163d92e233d60e01b815260040160405180910390fd5b6004810180546001600160a01b038616600162ff000160a01b031990911617600160b01b1790558181556001810154612df15760001960018201555b60048101805461ffff60a01b191661027160a41b17905560008581526101036020526040902054612e315760008581526101036020526040902060001990555b6001600160a01b03841660009081526101076020908152604090912083815584519091612e659160018401918701906146cd565b50827f2fe256b895c7737f17df53e47f93d864727942c40cbfeb0098fb10b2b57da51487878786600101548760040160149054906101000a900461ffff16604051612eb49594939291906155b0565b60405180910390a2505050505050565b6040805160a08101825260008082526020820181905291810182905260608101829052608081018290528190612ef98761418a565b875115612fae576000612f0c89826142e5565b905060008080612f1d8c602061431c565b60405163d505accf60e01b8152336004820152306024820152604481018e90526064810188905260ff8216608482015260a4810184905260c4810183905292955090935091506001600160a01b038c169063d505accf9060e401600060405180830381600087803b158015612f9157600080fd5b505af1158015612fa5573d6000803e3d6000fd5b50505050505050505b60006101076000896001600160a01b03166001600160a01b0316815260200190815260200160002060405180604001604052908160008201548152602001600182018054612ffb90615afe565b80601f016020809104026020016040519081016040528092919081815260200182805461302790615afe565b80156130745780601f1061304957610100808354040283529160200191613074565b820191906000526020600020905b81548152906001019060200180831161305757829003601f168201915b5050505050815250509050600081600001516000146130965746825114613099565b60015b905080156130d3576130cc466001600160a01b038b16156130ba578a611c5a565b61010b546001600160a01b0316611c5a565b93506130e8565b6130e582600001518360200151612957565b93505b600084815260ff6020819052604090912060048101549091600160b01b9091041661319757811561317e5760006001600160a01b038b161561312a578a613138565b61010b546001600160a01b03165b6040516001600160601b0319606083901b16602082015290915061317890879083906034016040516020818303038152906040526131734690565b612d4f565b50613197565b604051631433b3cd60e01b815260040160405180910390fd5b6000888152610104602090815260409182902082516060810184528154815260019091015460ff81161515928201839052610100900461ffff16928101929092526131f5576040516357fca4cf60e11b815260040160405180910390fd5b6001600160a01b038b166132795734995061010b60009054906101000a90046001600160a01b03166001600160a01b031663d0e30db08b6040518263ffffffff1660e01b81526004016000604051808303818588803b15801561325757600080fd5b505af115801561326b573d6000803e3d6000fd5b505050505060019750613394565b6040516370a0823160e01b81523060048201528b906000906001600160a01b038316906370a082319060240160206040518083038186803b1580156132bd57600080fd5b505afa1580156132d1573d6000803e3d6000fd5b505050506040513d601f19601f820116820180604052508101906132f591906151be565b905061330c6001600160a01b03831633308f612cbf565b6040516370a0823160e01b815230600482015281906001600160a01b038416906370a082319060240160206040518083038186803b15801561334d57600080fd5b505afa158015613361573d6000803e3d6000fd5b505050506040513d601f19601f8201168201806040525081019061338591906151be565b61338f9190615aa4565b9b5050505b81600101548a11156133b957604051635a20217760e11b815260040160405180910390fd5b3360009081526101066020908152604080832081518083018352905461ffff8082168352620100009091041681840152898452610100909252822090918a15613491576001600160a01b038e166134245783511561341857835161341d565b61010d545b9050613454565b5060008b8152600282016020526040902054806134545760405163156321fb60e11b815260040160405180910390fd5b613462818460000151614389565b9050808d101561348557604051630a44071360e01b815260040160405180910390fd5b60208801819052613530565b8351600090156134a25784516134a7565b61010d545b90506134b7818560000151614389565b9050803410156134da57604051630a44071360e01b815260040160405180910390fd5b803411156134f5576134f5336134f08334615aa4565b61296c565b600061350046611271565b6000818152610100602052604081208054929350849290919061352490849061593b565b90915550505060208901525b6000612710828f6135419190615aa4565b604087015161ffff1615613559578660400151613562565b61010e5461ffff165b61ffff166135709190615a85565b61357a9190615978565b905061358a818560200151614389565b90506000613598838361593b565b9050808f10156135bb57604051630a44071360e01b815260040160405180910390fd5b808460000160008282546135cf919061593b565b92505081905550808f6135e29190615aa4565b60408b0192909252508b151560608a01528d89528615801560808b0152909a50925061362a915050578682600201600082825461361f919061593b565b909155506136a29050565b8682600201600082825461363e9190615aa4565b9091555050600482810154604051630852cd8d60e31b81529182018990526001600160a01b0316906342966c6890602401600060405180830381600087803b15801561368957600080fd5b505af115801561369d573d6000803e3d6000fd5b505050505b50505050955095509592505050565b6000806001600160a01b0384161561373957836001600160a01b031663313ce5676040518163ffffffff1660e01b815260040160206040518083038186803b1580156136fc57600080fd5b505afa158015613710573d6000803e3d6000fd5b505050506040513d601f19601f8201168201806040525081019061373491906152a8565b61373c565b60125b60ff16905060088082111561377d5760006137578284615aa4565b61376290600a6159dd565b90508061376f8187615978565b6137799190615a85565b9450505b50919392505050565b60008060018a4660fe546040516137a8949392918e918e918e91602001615488565b604051602081830303815290604052905082156138b457602084015160031c6001908116148080156137e05750846060015151602014155b156137fe576040516315c1f47560e31b815260040160405180910390fd5b81856000015186602001518760400151805190602001208461384c5760608901518051602091820120604051613838920190815260200190565b604051602081830303815290604052613852565b88606001515b6040516001600160601b03193360601b1660208201526034016040516020818303038152906040528051906020012060405160200161389696959493929190615364565b604051602081830303815290604052805190602001209250506138be565b8051602082012091505b888a7fe315721819a1f353fe56de404206bdd896ab5edc7822f1804a8c4c2c4788174c848b8b60fe548b8d8b6139035760405180602001604052806000815250613924565b8c604051602001613914919061582f565b6040516020818303038152906040525b33604051613939989796959493929190615690565b60405180910390a360fe5460008b815260ff6020908152604091829020600281015460049182015484516318160ddd60e01b815294517f6bc83b8dd1a15f3a247f8f99d37e3bb8ae7074ea13ee1f509e045723fafe0b55968996909593946001600160a01b03909316936318160ddd93828101939192829003018186803b1580156139c357600080fd5b505afa1580156139d7573d6000803e3d6000fd5b505050506040513d601f19601f820116820180604052508101906139fb91906151be565b60408051948552602085019390935291830152606082015260800160405180910390a160fe8054906000613a2e83615b39565b919050555050505050505050505050565b6000858152610102602052604090205460ff1615613a705760405163d49624bf60e01b815260040160405180910390fd5b60fc54600085815261010360205260409020546001600160a01b039091169063965d0a6490879085908590881015613aa9576000613ab7565b60fc54600160a01b900460ff165b6040518563ffffffff1660e01b8152600401613ad694939291906155f6565b600060405180830381600087803b158015613af057600080fd5b505af1158015613b04573d6000803e3d6000fd5b505050505050505050565b600085815260ff60208190526040822060048101549091600160b01b90910416613b4c57604051631433b3cd60e01b815260040160405180910390fd5b4681541491508115613b82578251613b64908661593b565b816002016000828254613b779190615aa4565b90915550613ba79050565b8251613b8e908661593b565b816002016000828254613ba1919061593b565b90915550505b60048101546001600160a01b03166000838015613bcb575060208501516001908116145b8015613be5575061010b546001600160a01b038381169116145b855190915015613bff57613bff82338760000151876143b0565b60608501515115613dbd5761010a546001600160a01b031660008215613cc857613c29828a61443d565b816001600160a01b03166329e164db88604001518c8a606001518b602001518c608001518e6040518763ffffffff1660e01b8152600401613c6f96959493929190615558565b602060405180830381600087803b158015613c8957600080fd5b505af1158015613c9d573d6000803e3d6000fd5b505050506040513d601f19601f82011682018060405250810190613cc19190614d24565b9050613d71565b613cd484838b896143b0565b816001600160a01b031663b88c998b8589604001518d8b606001518c602001518d608001518f6040518863ffffffff1660e01b8152600401613d1c97969594939291906154f7565b602060405180830381600087803b158015613d3657600080fd5b505af1158015613d4a573d6000803e3d6000fd5b505050506040513d601f19601f82011682018060405250810190613d6e9190614d24565b90505b604080518d81526001600160a01b0384166020820152821515917fb5fadd70c6860131059f49f37dff63a2b25d1df54e62d75c8327d896c0f7a0ad910160405180910390a25050613dde565b8015613dd257613dcd888861443d565b613dde565b613dde828989876143b0565b6002830154600480850154604080516318160ddd60e01b815290517fe16b3d616e66789124fb71bf745a9a969a79906489c299e52e09686696152ef1948f9490936001600160a01b0316926318160ddd9281830192602092829003018186803b158015613e4a57600080fd5b505afa158015613e5e573d6000803e3d6000fd5b505050506040513d601f19601f82011682018060405250810190613e8291906151be565b6040805193845260208401929092529082015260600160405180910390a15050509695505050505050565b6000613f02826040518060400160405280602081526020017f5361666545524332303a206c6f772d6c6576656c2063616c6c206661696c6564815250856001600160a01b03166145559092919063ffffffff16565b8051909150156113af5780806020019051810190613f209190614d24565b6113af5760405162461bcd60e51b815260206004820152602a60248201527f5361666545524332303a204552433230206f7065726174696f6e20646964206e6044820152691bdd081cdd58d8d9595960b21b60648201526084016111d5565b60606000613f8e836002615a85565b613f9990600261593b565b6001600160401b03811115613fb057613fb0615b80565b6040519080825280601f01601f191660200182016040528015613fda576020820181803683370190505b509050600360fc1b81600081518110613ff557613ff5615b6a565b60200101906001600160f81b031916908160001a905350600f60fb1b8160018151811061402457614024615b6a565b60200101906001600160f81b031916908160001a9053506000614048846002615a85565b61405390600161593b565b90505b60018111156140cb576f181899199a1a9b1b9c1cb0b131b232b360811b85600f166010811061408757614087615b6a565b1a60f81b82828151811061409d5761409d615b6a565b60200101906001600160f81b031916908160001a90535060049490941c936140c481615ae7565b9050614056565b508315611aed5760405162461bcd60e51b815260206004820181905260248201527f537472696e67733a20686578206c656e67746820696e73756666696369656e7460448201526064016111d5565b600054610100900460ff1680614133575060005460ff16155b61414f5760405162461bcd60e51b81526004016111d5906157aa565b600054610100900460ff16158015614171576000805461ffff19166101011790555b600160c9558015612cbc576000805461ff001916905550565b6001600160a01b03811661419b5750565b60408051600481526024810182526020810180516001600160e01b031663313ce56760e01b17905290516000916001600160a01b038416916141dd9190615348565b6000604051808303816000865af19150503d806000811461421a576040519150601f19603f3d011682016040523d82523d6000602084013e61421f565b606091505b505090508061424157604051636d737eeb60e01b815260040160405180910390fd5b60408051600481526024810182526020810180516001600160e01b03166395d89b4160e01b17905290516001600160a01b0384169161427f91615348565b6000604051808303816000865af19150503d80600081146142bc576040519150601f19603f3d011682016040523d82523d6000602084013e6142c1565b606091505b505080915050806114e557604051636d737eeb60e01b815260040160405180910390fd5b60006142f282602061593b565b83511015614313576040516340f0f32960e01b815260040160405180910390fd5b50016020015190565b8181016020810151604082015160419092015190919060ff16601b81101561434c57614349601b82615953565b90505b8060ff16601b1415801561436457508060ff16601c14155b1561438257604051630633a0a560e21b815260040160405180910390fd5b9250925092565b600061271061439c61ffff841685615a85565b6143a69190615978565b611aed9084615aa4565b81156111615780156143d5576143d06001600160a01b03851684846129fa565b611161565b6040516340c10f1960e01b81526001600160a01b038481166004830152602482018490528516906340c10f1990604401600060405180830381600087803b15801561441f57600080fd5b505af1158015614433573d6000803e3d6000fd5b5050505050505050565b61010e546201000090046001600160a01b03166144bd5761010b54604051632e1a7d4d60e01b8152600481018390526001600160a01b0390911690632e1a7d4d90602401600060405180830381600087803b15801561449b57600080fd5b505af11580156144af573d6000803e3d6000fd5b505050506114e5828261296c565b61010e5461010b546144e3916001600160a01b03918216916201000090910416836129fa565b61010e5460405163f3fef3a360e01b81526001600160a01b03848116600483015260248201849052620100009092049091169063f3fef3a390604401600060405180830381600087803b15801561453957600080fd5b505af115801561454d573d6000803e3d6000fd5b505050505050565b6060614564848460008561456c565b949350505050565b6060824710156145cd5760405162461bcd60e51b815260206004820152602660248201527f416464726573733a20696e73756666696369656e742062616c616e636520666f6044820152651c8818d85b1b60d21b60648201526084016111d5565b843b61461b5760405162461bcd60e51b815260206004820152601d60248201527f416464726573733a2063616c6c20746f206e6f6e2d636f6e747261637400000060448201526064016111d5565b600080866001600160a01b031685876040516146379190615348565b60006040518083038185875af1925050503d8060008114614674576040519150601f19603f3d011682016040523d82523d6000602084013e614679565b606091505b5091509150614689828286614694565b979650505050505050565b606083156146a3575081611aed565b8251156146b35782518084602001fd5b8160405162461bcd60e51b81526004016111d5919061576d565b8280546146d990615afe565b90600052602060002090601f0160209004810192826146fb5760008555614741565b82601f1061471457805160ff1916838001178555614741565b82800160010185558215614741579182015b82811115614741578251825591602001919060010190614726565b5061474d929150614751565b5090565b5b8082111561474d5760008155600101614752565b803561477181615b96565b919050565b600082601f83011261478757600080fd5b8135602061479c61479783615918565b6158e8565b80838252828201915082860187848660051b89010111156147bc57600080fd5b60005b858110156147db578135845292840192908401906001016147bf565b5090979650505050505050565b803561477181615bab565b60008083601f84011261480557600080fd5b5081356001600160401b0381111561481c57600080fd5b60208301915083602082850101111561483457600080fd5b9250929050565b600082601f83011261484c57600080fd5b81356001600160401b0381111561486557614865615b80565b614878601f8201601f19166020016158e8565b81815284602083860101111561488d57600080fd5b816020850160208301376000918101602001919091529392505050565b600060a082840312156148bc57600080fd5b60405160a081016001600160401b0382821081831117156148df576148df615b80565b8160405282935084358352602085013560208401526040850135915061490482615b96565b816040840152606085013591508082111561491e57600080fd5b61492a8683870161483b565b6060840152608085013591508082111561494357600080fd5b506149508582860161483b565b6080830152505092915050565b803561ffff8116811461477157600080fd5b803563ffffffff8116811461477157600080fd5b803561477181615bb9565b6000602082840312156149a057600080fd5b8135611aed81615b96565b6000602082840312156149bd57600080fd5b8151611aed81615b96565b600080600080608085870312156149de57600080fd5b84356149e981615b96565b935060208501356149f981615b96565b92506040850135915060608501356001600160401b03811115614a1b57600080fd5b614a278782880161483b565b91505092959194509250565b600080600060608486031215614a4857600080fd5b8335614a5381615b96565b9250614a616020850161495d565b9150614a6f6040850161495d565b90509250925092565b60008060408385031215614a8b57600080fd5b8235614a9681615b96565b946020939093013593505050565b60008060008060008060008060006101008a8c031215614ac357600080fd5b614acc8a614766565b985060208a0135975060408a0135965060608a01356001600160401b0380821115614af657600080fd5b614b028d838e0161483b565b975060808c0135915080821115614b1857600080fd5b614b248d838e0161483b565b9650614b3260a08d016147e8565b9550614b4060c08d0161496f565b945060e08c0135915080821115614b5657600080fd5b50614b638c828d016147f3565b915080935050809150509295985092959850929598565b60008060408385031215614b8d57600080fd5b82356001600160401b03811115614ba357600080fd5b8301601f81018513614bb457600080fd5b80356020614bc461479783615918565b80838252828201915082850189848660051b8801011115614be457600080fd5b600095505b84861015614c07578035835260019590950194918301918301614be9565b509550614c1790508682016147e8565b93505050509250929050565b60008060006060808587031215614c3957600080fd5b84356001600160401b0380821115614c5057600080fd5b614c5c88838901614776565b9550602091508187013581811115614c7357600080fd5b87019050601f81018813614c8657600080fd5b8035614c9461479782615918565b81815283810190838501868402850186018c1015614cb157600080fd5b60009450845b84811015614d0d5787828e031215614ccd578586fd5b614cd561589e565b8235815287830135614ce681615bab565b818901526040614cf784820161495d565b9082015284529286019290870190600101614cb7565b5050809750505050505050614a6f604085016147e8565b600060208284031215614d3657600080fd5b8151611aed81615bab565b600060208284031215614d5357600080fd5b5035919050565b60008060408385031215614d6d57600080fd5b823591506020830135614d7f81615b96565b809150509250929050565b600080600060608486031215614d9f57600080fd5b8335925060208401356001600160401b0380821115614dbd57600080fd5b614dc987838801614776565b93506040860135915080821115614ddf57600080fd5b50614dec86828701614776565b9150509250925092565b60008060008060808587031215614e0c57600080fd5b8435935060208501356001600160401b0380821115614e2a57600080fd5b614e368883890161483b565b94506040870135915080821115614e4c57600080fd5b50614e598782880161483b565b9250506060850135614e6a81615bb9565b939692955090935050565b60008060408385031215614e8857600080fd5b50508035926020909101359150565b60008060008060808587031215614ead57600080fd5b8435935060208501359250614ec46040860161495d565b9396929550929360600135925050565b600080600080600080600080600060e08a8c031215614ef257600080fd5b8935985060208a0135975060408a0135965060608a0135614f1281615b96565b955060808a0135945060a08a01356001600160401b0380821115614f3557600080fd5b614f418d838e016147f3565b909650945060c08c0135915080821115614b5657600080fd5b600080600080600080600080610100898b031215614f7757600080fd5b8835975060208901359650604089013595506060890135614f9781615b96565b94506080890135935060a08901356001600160401b03811115614fb957600080fd5b614fc58b828c016148aa565b93505060c0890135614fd681615bab565b915060e0890135614fe681615b96565b809150509295985092959890939650565b60006020828403121561500957600080fd5b81356001600160e01b031981168114611aed57600080fd5b60008060008060008060c0878903121561503a57600080fd5b86356001600160401b038082111561505157600080fd5b61505d8a838b0161483b565b975060208901359650604089013591508082111561507a57600080fd5b6150868a838b0161483b565b9550606089013591508082111561509c57600080fd5b6150a88a838b0161483b565b94506150b660808a01614983565b935060a08901359150808211156150cc57600080fd5b506150d989828a0161483b565b9150509295509295509295565b6000602082840312156150f857600080fd5b81356001600160401b0381111561510e57600080fd5b614564848285016148aa565b60006020828403121561512c57600080fd5b81356001600160401b038082111561514357600080fd5b908301906080828603121561515757600080fd5b61515f6158c6565b823581526020830135602082015260408301358281111561517f57600080fd5b61518b8782860161483b565b6040830152506060830135828111156151a357600080fd5b6151af8782860161483b565b60608301525095945050505050565b6000602082840312156151d057600080fd5b5051919050565b6000806000606084860312156151ec57600080fd5b8335925060208401356151fe81615bab565b9150604084013561520e81615bab565b809150509250925092565b6000806040838503121561522c57600080fd5b8235915060208301356001600160401b0381111561524957600080fd5b6152558582860161483b565b9150509250929050565b6000806040838503121561527257600080fd5b823591506152826020840161495d565b90509250929050565b60006020828403121561529d57600080fd5b8135611aed81615bb9565b6000602082840312156152ba57600080fd5b8151611aed81615bb9565b600080604083850312156152d857600080fd5b82356152e381615bb9565b91506020830135614d7f81615b96565b81835281816020850137506000828201602090810191909152601f909101601f19169091010190565b60008151808452615334816020860160208601615abb565b601f01601f19169290920160200192915050565b6000825161535a818460208701615abb565b9190910192915050565b60008751615376818460208c01615abb565b8083019050878152866020820152856040820152845161539d816060840160208901615abb565b016060810193909352505060800195945050505050565b7f416363657373436f6e74726f6c3a206163636f756e74200000000000000000008152600083516153ec816017850160208801615abb565b7001034b99036b4b9b9b4b733903937b6329607d1b601791840191820152835161541d816028840160208801615abb565b01602801949350505050565b85815284602082015260008451615447816040850160208901615abb565b84519083019061545e816040840160208901615abb565b60f89490941b6001600160f81b031916604091909401908101939093525050604101949350505050565b878152866020820152856040820152846060820152836080820152600083516154b88160a0850160208801615abb565b60a092019182019290925260c001979650505050505050565b828152600082516154e9816020850160208701615abb565b919091016020019392505050565b6001600160a01b03888116825287811660208301528616604082015260e06060820181905260009061552b9083018761531c565b85608084015282810360a0840152615543818661531c565b9150508260c083015298975050505050505050565b6001600160a01b0387811682528616602082015260c0604082018190526000906155849083018761531c565b856060840152828103608084015261559c818661531c565b9150508260a0830152979650505050505050565b8581526001600160a01b038516602082015260a0604082018190526000906155da9083018661531c565b905083606083015261ffff831660808301529695505050505050565b8481526060602082015260006156106060830185876152f3565b905060ff8316604083015295945050505050565b83815260606020820152600061563d606083018561531c565b905060ff83166040830152949350505050565b848152608060208201526000615669608083018661531c565b828103604084015261567b818661531c565b91505060ff8316606083015295945050505050565b60006101808a83528960208401528060408401526156b08184018a61531c565b905087606084015263ffffffff87166080840152855160a0840152602086015160c0840152604086015160e0840152606086015115156101008401526080860151151561012084015282810361014084015261570c818661531c565b9150506157256101608301846001600160a01b03169052565b9998505050505050505050565b86815285602082015284604082015260a06060820152600061575860a0830185876152f3565b90508215156080830152979650505050505050565b602081526000611aed602083018461531c565b60208082526010908201526f14185d5cd8589b194e881c185d5cd95960821b604082015260600190565b6020808252602e908201527f496e697469616c697a61626c653a20636f6e747261637420697320616c72656160408201526d191e481a5b9a5d1a585b1a5e995960921b606082015260800190565b6020808252601f908201527f5265656e7472616e637947756172643a207265656e7472616e742063616c6c00604082015260600190565b602081528151602082015260208201516040820152600060408301516080606084015261585f60a084018261531c565b90506060840151601f1984830301608085015261587c828261531c565b95945050505050565b828152604060208201526000614564604083018461531c565b604051606081016001600160401b03811182821017156158c0576158c0615b80565b60405290565b604051608081016001600160401b03811182821017156158c0576158c0615b80565b604051601f8201601f191681016001600160401b038111828210171561591057615910615b80565b604052919050565b60006001600160401b0382111561593157615931615b80565b5060051b60200190565b6000821982111561594e5761594e615b54565b500190565b600060ff821660ff84168060ff0382111561597057615970615b54565b019392505050565b60008261599557634e487b7160e01b600052601260045260246000fd5b500490565b600181815b808511156159d55781600019048211156159bb576159bb615b54565b808516156159c857918102915b93841c939080029061599f565b509250929050565b6000611aed83836000826159f357506001610eb4565b81615a0057506000610eb4565b8160018114615a165760028114615a2057615a3c565b6001915050610eb4565b60ff841115615a3157615a31615b54565b50506001821b610eb4565b5060208310610133831016604e8410600b8410161715615a5f575081810a610eb4565b615a69838361599a565b8060001904821115615a7d57615a7d615b54565b029392505050565b6000816000190483118215151615615a9f57615a9f615b54565b500290565b600082821015615ab657615ab6615b54565b500390565b60005b83811015615ad6578181015183820152602001615abe565b838111156111615750506000910152565b600081615af657615af6615b54565b506000190190565b600181811c90821680615b1257607f821691505b60208210811415615b3357634e487b7160e01b600052602260045260246000fd5b50919050565b6000600019821415615b4d57615b4d615b54565b5060010190565b634e487b7160e01b600052601160045260246000fd5b634e487b7160e01b600052603260045260246000fd5b634e487b7160e01b600052604160045260246000fd5b6001600160a01b0381168114612cbc57600080fd5b8015158114612cbc57600080fd5b60ff81168114612cbc57600080fdfea26469706673582212207de05a0f120812b35a23ed82c32a92358b6b2da01c047e3799054898257fea1864736f6c63430008070033",
  "linkReferences": {},
  "deployedLinkReferences": {}
}